{
  "address": "0x384F6e8EC88987ecB83A1fc0bA11aef06dE53f40",
  "abi": [
    {
      "inputs": [
        {
          "internalType": "string",
          "name": "_contractTitle",
          "type": "string"
        }
      ],
      "stateMutability": "nonpayable",
      "type": "constructor"
    },
    {
      "inputs": [
        {
          "internalType": "address",
          "name": "_doctorAddress",
          "type": "address"
        },
        {
          "internalType": "string",
          "name": "_crm",
          "type": "string"
        }
      ],
      "name": "addDoctor",
      "outputs": [],
      "stateMutability": "nonpayable",
      "type": "function"
    },
    {
      "inputs": [
        {
          "internalType": "string",
          "name": "_name",
          "type": "string"
        },
        {
          "internalType": "string",
          "name": "_cpf",
          "type": "string"
        },
        {
          "internalType": "uint256",
          "name": "_age",
          "type": "uint256"
        },
        {
          "internalType": "uint256",
          "name": "_priority",
          "type": "uint256"
        },
        {
          "internalType": "string",
          "name": "_necessity",
          "type": "string"
        }
      ],
      "name": "addPatient",
      "outputs": [],
      "stateMutability": "nonpayable",
      "type": "function"
    },
    {
      "inputs": [
        {
          "internalType": "uint256",
          "name": "",
          "type": "uint256"
        }
      ],
      "name": "allPatients",
      "outputs": [
        {
          "internalType": "string",
          "name": "name",
          "type": "string"
        },
        {
          "internalType": "string",
          "name": "cpf",
          "type": "string"
        },
        {
          "internalType": "uint256",
          "name": "age",
          "type": "uint256"
        },
        {
          "internalType": "uint256",
          "name": "priority",
          "type": "uint256"
        },
        {
          "internalType": "string",
          "name": "necessity",
          "type": "string"
        },
        {
          "internalType": "address",
          "name": "doctorAddress",
          "type": "address"
        }
      ],
      "stateMutability": "view",
      "type": "function"
    },
    {
      "inputs": [],
      "name": "contractTitle",
      "outputs": [
        {
          "internalType": "string",
          "name": "",
          "type": "string"
        }
      ],
      "stateMutability": "view",
      "type": "function"
    },
    {
      "inputs": [
        {
          "internalType": "address",
          "name": "",
          "type": "address"
        }
      ],
      "name": "doctors",
      "outputs": [
        {
          "internalType": "address",
          "name": "doctorAddress",
          "type": "address"
        },
        {
          "internalType": "string",
          "name": "crm",
          "type": "string"
        }
      ],
      "stateMutability": "view",
      "type": "function"
    },
    {
      "inputs": [],
      "name": "getAllPatients",
      "outputs": [
        {
          "components": [
            {
              "internalType": "string",
              "name": "name",
              "type": "string"
            },
            {
              "internalType": "string",
              "name": "cpf",
              "type": "string"
            },
            {
              "internalType": "uint256",
              "name": "age",
              "type": "uint256"
            },
            {
              "internalType": "uint256",
              "name": "priority",
              "type": "uint256"
            },
            {
              "internalType": "string",
              "name": "necessity",
              "type": "string"
            },
            {
              "internalType": "address",
              "name": "doctorAddress",
              "type": "address"
            }
          ],
          "internalType": "struct MedicalContract.Patient[]",
          "name": "",
          "type": "tuple[]"
        }
      ],
      "stateMutability": "view",
      "type": "function"
    },
    {
      "inputs": [
        {
          "internalType": "address",
          "name": "_doctorAddress",
          "type": "address"
        }
      ],
      "name": "getAllPatientsByDoctor",
      "outputs": [
        {
          "components": [
            {
              "internalType": "string",
              "name": "name",
              "type": "string"
            },
            {
              "internalType": "string",
              "name": "cpf",
              "type": "string"
            },
            {
              "internalType": "uint256",
              "name": "age",
              "type": "uint256"
            },
            {
              "internalType": "uint256",
              "name": "priority",
              "type": "uint256"
            },
            {
              "internalType": "string",
              "name": "necessity",
              "type": "string"
            },
            {
              "internalType": "address",
              "name": "doctorAddress",
              "type": "address"
            }
          ],
          "internalType": "struct MedicalContract.Patient[]",
          "name": "",
          "type": "tuple[]"
        }
      ],
      "stateMutability": "view",
      "type": "function"
    },
    {
      "inputs": [
        {
          "internalType": "address",
          "name": "_doctorAddress",
          "type": "address"
        }
      ],
      "name": "getDoctorCRM",
      "outputs": [
        {
          "internalType": "string",
          "name": "",
          "type": "string"
        }
      ],
      "stateMutability": "view",
      "type": "function"
    },
    {
      "inputs": [],
      "name": "getTitle",
      "outputs": [
        {
          "internalType": "string",
          "name": "",
          "type": "string"
        }
      ],
      "stateMutability": "view",
      "type": "function"
    },
    {
      "inputs": [],
      "name": "owner",
      "outputs": [
        {
          "internalType": "address",
          "name": "",
          "type": "address"
        }
      ],
      "stateMutability": "view",
      "type": "function"
    },
    {
      "inputs": [
        {
          "internalType": "address",
          "name": "",
          "type": "address"
        },
        {
          "internalType": "uint256",
          "name": "",
          "type": "uint256"
        }
      ],
      "name": "patientsByDoctor",
      "outputs": [
        {
          "internalType": "string",
          "name": "name",
          "type": "string"
        },
        {
          "internalType": "string",
          "name": "cpf",
          "type": "string"
        },
        {
          "internalType": "uint256",
          "name": "age",
          "type": "uint256"
        },
        {
          "internalType": "uint256",
          "name": "priority",
          "type": "uint256"
        },
        {
          "internalType": "string",
          "name": "necessity",
          "type": "string"
        },
        {
          "internalType": "address",
          "name": "doctorAddress",
          "type": "address"
        }
      ],
      "stateMutability": "view",
      "type": "function"
    }
  ],
  "transactionHash": "0xcaed01dfd5a04930e8312006998713d39f61e489573f43cad86eadd854610b4d",
  "args": [
    "Coração"
  ],
  "numDeployments": 1,
  "solcInputHash": "ea19b21981ab13ed0b270c1e181ca72f",
  "bytecode": "0x60806040523480156200001157600080fd5b50604051620015c6380380620015c6833981016040819052620000349162000072565b600080546001600160a01b031916331790556001620000548282620001d6565b5050620002a2565b634e487b7160e01b600052604160045260246000fd5b600060208083850312156200008657600080fd5b82516001600160401b03808211156200009e57600080fd5b818501915085601f830112620000b357600080fd5b815181811115620000c857620000c86200005c565b604051601f8201601f19908116603f01168101908382118183101715620000f357620000f36200005c565b8160405282815288868487010111156200010c57600080fd5b600093505b8284101562000130578484018601518185018701529285019262000111565b600086848301015280965050505050505092915050565b600181811c908216806200015c57607f821691505b6020821081036200017d57634e487b7160e01b600052602260045260246000fd5b50919050565b601f821115620001d157600081815260208120601f850160051c81016020861015620001ac5750805b601f850160051c820191505b81811015620001cd57828155600101620001b8565b5050505b505050565b81516001600160401b03811115620001f257620001f26200005c565b6200020a8162000203845462000147565b8462000183565b602080601f831160018114620002425760008415620002295750858301515b600019600386901b1c1916600185901b178555620001cd565b600085815260208120601f198616915b82811015620002735788860151825594840194600190910190840162000252565b5085821015620002925787850151600019600388901b60f8161c191681555b5050505050600190811b01905550565b61131480620002b26000396000f3fe608060405234801561001057600080fd5b50600436106100a95760003560e01c80639c33e95d116100715780639c33e95d14610144578063a9583c2214610159578063d8f608df1461017a578063e8113e731461018d578063fd190da8146101a0578063ff3c1a8f146101b357600080fd5b8063035a1a00146100ae57806318a231a9146100c35780633cc684a1146100e15780637cf1e445146101065780638da5cb5b14610119575b600080fd5b6100c16100bc366004610e79565b6101bb565b005b6100cb6103d4565b6040516100d89190610f5b565b60405180910390f35b6100f46100ef366004611042565b610613565b6040516100d89695949392919061106c565b6100c16101143660046110cd565b61080d565b60005461012c906001600160a01b031681565b6040516001600160a01b0390911681526020016100d8565b61014c61086a565b6040516100d8919061111b565b61016c610167366004611135565b6108f8565b6040516100d8929190611150565b6100f461018836600461117c565b6109a7565b61014c61019b366004611135565b6109da565b6100cb6101ae366004611135565b610aef565b61014c610d44565b336000908152600260205260409020546001600160a01b03166102255760405162461bcd60e51b815260206004820181905260248201527f446f63746f722061646472657373206973206e6f74207265676973746572656460448201526064015b60405180910390fd5b336000818152600360209081526040808320815160c0810183528a81528084018a9052918201889052606082018790526080820186905260a0820194909452835460018101855593835291208151919260060201908190610286908261121e565b506020820151600182019061029b908261121e565b506040820151600282015560608201516003820155608082015160048201906102c4908261121e565b5060a091820151600590910180546001600160a01b039092166001600160a01b03199092169190911790556040805160c081018252878152602081018790529081018590526060810184905260808101839052339181019190915260048054600181018255600091909152815160069091027f8a35acfbc15ff81a39ae7d344fd709f28e8600b4aa8c65c6b64bfe7fe36bd19b01908190610365908261121e565b506020820151600182019061037a908261121e565b506040820151600282015560608201516003820155608082015160048201906103a3908261121e565b5060a09190910151600590910180546001600160a01b0319166001600160a01b039092169190911790555050505050565b60606004805480602002602001604051908101604052809291908181526020016000905b8282101561060a57838290600052602060002090600602016040518060c001604052908160008201805461042b90611195565b80601f016020809104026020016040519081016040528092919081815260200182805461045790611195565b80156104a45780601f10610479576101008083540402835291602001916104a4565b820191906000526020600020905b81548152906001019060200180831161048757829003601f168201915b505050505081526020016001820180546104bd90611195565b80601f01602080910402602001604051908101604052809291908181526020018280546104e990611195565b80156105365780601f1061050b57610100808354040283529160200191610536565b820191906000526020600020905b81548152906001019060200180831161051957829003601f168201915b50505050508152602001600282015481526020016003820154815260200160048201805461056390611195565b80601f016020809104026020016040519081016040528092919081815260200182805461058f90611195565b80156105dc5780601f106105b1576101008083540402835291602001916105dc565b820191906000526020600020905b8154815290600101906020018083116105bf57829003601f168201915b5050509183525050600591909101546001600160a01b031660209182015290825260019290920191016103f8565b50505050905090565b6003602052816000526040600020818154811061062f57600080fd5b90600052602060002090600602016000915091505080600001805461065390611195565b80601f016020809104026020016040519081016040528092919081815260200182805461067f90611195565b80156106cc5780601f106106a1576101008083540402835291602001916106cc565b820191906000526020600020905b8154815290600101906020018083116106af57829003601f168201915b5050505050908060010180546106e190611195565b80601f016020809104026020016040519081016040528092919081815260200182805461070d90611195565b801561075a5780601f1061072f5761010080835404028352916020019161075a565b820191906000526020600020905b81548152906001019060200180831161073d57829003601f168201915b50505050509080600201549080600301549080600401805461077b90611195565b80601f01602080910402602001604051908101604052809291908181526020018280546107a790611195565b80156107f45780601f106107c9576101008083540402835291602001916107f4565b820191906000526020600020905b8154815290600101906020018083116107d757829003601f168201915b505050600590930154919250506001600160a01b031686565b6040805180820182526001600160a01b03848116808352602080840186815260009283526002909152939020825181546001600160a01b031916921691909117815591519091906001820190610863908261121e565b5050505050565b6001805461087790611195565b80601f01602080910402602001604051908101604052809291908181526020018280546108a390611195565b80156108f05780601f106108c5576101008083540402835291602001916108f0565b820191906000526020600020905b8154815290600101906020018083116108d357829003601f168201915b505050505081565b600260205260009081526040902080546001820180546001600160a01b03909216929161092490611195565b80601f016020809104026020016040519081016040528092919081815260200182805461095090611195565b801561099d5780601f106109725761010080835404028352916020019161099d565b820191906000526020600020905b81548152906001019060200180831161098057829003601f168201915b5050505050905082565b600481815481106109b757600080fd5b906000526020600020906006020160009150905080600001805461065390611195565b6001600160a01b0381811660009081526002602052604090205460609116610a445760405162461bcd60e51b815260206004820181905260248201527f446f63746f722061646472657373206973206e6f742072656769737465726564604482015260640161021c565b6001600160a01b03821660009081526002602052604090206001018054610a6a90611195565b80601f0160208091040260200160405190810160405280929190818152602001828054610a9690611195565b8015610ae35780601f10610ab857610100808354040283529160200191610ae3565b820191906000526020600020905b815481529060010190602001808311610ac657829003601f168201915b50505050509050919050565b6001600160a01b0381166000908152600360209081526040808320805482518185028101850190935280835260609492939192909184015b82821015610d3957838290600052602060002090600602016040518060c0016040529081600082018054610b5a90611195565b80601f0160208091040260200160405190810160405280929190818152602001828054610b8690611195565b8015610bd35780601f10610ba857610100808354040283529160200191610bd3565b820191906000526020600020905b815481529060010190602001808311610bb657829003601f168201915b50505050508152602001600182018054610bec90611195565b80601f0160208091040260200160405190810160405280929190818152602001828054610c1890611195565b8015610c655780601f10610c3a57610100808354040283529160200191610c65565b820191906000526020600020905b815481529060010190602001808311610c4857829003601f168201915b505050505081526020016002820154815260200160038201548152602001600482018054610c9290611195565b80601f0160208091040260200160405190810160405280929190818152602001828054610cbe90611195565b8015610d0b5780601f10610ce057610100808354040283529160200191610d0b565b820191906000526020600020905b815481529060010190602001808311610cee57829003601f168201915b5050509183525050600591909101546001600160a01b03166020918201529082526001929092019101610b27565b505050509050919050565b606060018054610d5390611195565b80601f0160208091040260200160405190810160405280929190818152602001828054610d7f90611195565b8015610dcc5780601f10610da157610100808354040283529160200191610dcc565b820191906000526020600020905b815481529060010190602001808311610daf57829003601f168201915b5050505050905090565b634e487b7160e01b600052604160045260246000fd5b600082601f830112610dfd57600080fd5b813567ffffffffffffffff80821115610e1857610e18610dd6565b604051601f8301601f19908116603f01168101908282118183101715610e4057610e40610dd6565b81604052838152866020858801011115610e5957600080fd5b836020870160208301376000602085830101528094505050505092915050565b600080600080600060a08688031215610e9157600080fd5b853567ffffffffffffffff80821115610ea957600080fd5b610eb589838a01610dec565b96506020880135915080821115610ecb57600080fd5b610ed789838a01610dec565b955060408801359450606088013593506080880135915080821115610efb57600080fd5b50610f0888828901610dec565b9150509295509295909350565b6000815180845260005b81811015610f3b57602081850181015186830182015201610f1f565b506000602082860101526020601f19601f83011685010191505092915050565b60006020808301818452808551808352604092508286019150828160051b87010184880160005b8381101561101857603f19898403018552815160c08151818652610fa882870182610f15565b915050888201518582038a870152610fc08282610f15565b9150508782015188860152606080830151818701525060808083015186830382880152610fed8382610f15565b60a0948501516001600160a01b03169790940196909652505094870194925090860190600101610f82565b509098975050505050505050565b80356001600160a01b038116811461103d57600080fd5b919050565b6000806040838503121561105557600080fd5b61105e83611026565b946020939093013593505050565b60c08152600061107f60c0830189610f15565b82810360208401526110918189610f15565b905086604084015285606084015282810360808401526110b18186610f15565b91505060018060a01b03831660a0830152979650505050505050565b600080604083850312156110e057600080fd5b6110e983611026565b9150602083013567ffffffffffffffff81111561110557600080fd5b61111185828601610dec565b9150509250929050565b60208152600061112e6020830184610f15565b9392505050565b60006020828403121561114757600080fd5b61112e82611026565b6001600160a01b038316815260406020820181905260009061117490830184610f15565b949350505050565b60006020828403121561118e57600080fd5b5035919050565b600181811c908216806111a957607f821691505b6020821081036111c957634e487b7160e01b600052602260045260246000fd5b50919050565b601f82111561121957600081815260208120601f850160051c810160208610156111f65750805b601f850160051c820191505b8181101561121557828155600101611202565b5050505b505050565b815167ffffffffffffffff81111561123857611238610dd6565b61124c816112468454611195565b846111cf565b602080601f83116001811461128157600084156112695750858301515b600019600386901b1c1916600185901b178555611215565b600085815260208120601f198616915b828110156112b057888601518255948401946001909101908401611291565b50858210156112ce5787850151600019600388901b60f8161c191681555b5050505050600190811b0190555056fea26469706673582212203fa99435d548d88436e33fd5d4406904d72ae142ae7ffc500b2affda97259ca264736f6c63430008110033",
  "devdoc": {
    "author": "João Marinho",
    "kind": "dev",
    "methods": {},
    "version": 1
  },
  "userdoc": {
    "kind": "user",
    "methods": {},
    "notice": "A smart contract that allows changing a state variable of the contract and tracking the changes It also allows the owner to withdraw the Ether in the contract",
    "version": 1
  },
  "storageLayout": {
    "storage": [
      {
        "astId": 5,
        "contract": "contracts/MedicalContract.sol:MedicalContract",
        "label": "owner",
        "offset": 0,
        "slot": "0",
        "type": "t_address"
      },
      {
        "astId": 7,
        "contract": "contracts/MedicalContract.sol:MedicalContract",
        "label": "contractTitle",
        "offset": 0,
        "slot": "1",
        "type": "t_string_storage"
      },
      {
        "astId": 30,
        "contract": "contracts/MedicalContract.sol:MedicalContract",
        "label": "doctors",
        "offset": 0,
        "slot": "2",
        "type": "t_mapping(t_address,t_struct(Doctor)25_storage)"
      },
      {
        "astId": 36,
        "contract": "contracts/MedicalContract.sol:MedicalContract",
        "label": "patientsByDoctor",
        "offset": 0,
        "slot": "3",
        "type": "t_mapping(t_address,t_array(t_struct(Patient)20_storage)dyn_storage)"
      },
      {
        "astId": 40,
        "contract": "contracts/MedicalContract.sol:MedicalContract",
        "label": "allPatients",
        "offset": 0,
        "slot": "4",
        "type": "t_array(t_struct(Patient)20_storage)dyn_storage"
      }
    ],
    "types": {
      "t_address": {
        "encoding": "inplace",
        "label": "address",
        "numberOfBytes": "20"
      },
      "t_array(t_struct(Patient)20_storage)dyn_storage": {
        "base": "t_struct(Patient)20_storage",
        "encoding": "dynamic_array",
        "label": "struct MedicalContract.Patient[]",
        "numberOfBytes": "32"
      },
      "t_mapping(t_address,t_array(t_struct(Patient)20_storage)dyn_storage)": {
        "encoding": "mapping",
        "key": "t_address",
        "label": "mapping(address => struct MedicalContract.Patient[])",
        "numberOfBytes": "32",
        "value": "t_array(t_struct(Patient)20_storage)dyn_storage"
      },
      "t_mapping(t_address,t_struct(Doctor)25_storage)": {
        "encoding": "mapping",
        "key": "t_address",
        "label": "mapping(address => struct MedicalContract.Doctor)",
        "numberOfBytes": "32",
        "value": "t_struct(Doctor)25_storage"
      },
      "t_string_storage": {
        "encoding": "bytes",
        "label": "string",
        "numberOfBytes": "32"
      },
      "t_struct(Doctor)25_storage": {
        "encoding": "inplace",
        "label": "struct MedicalContract.Doctor",
        "members": [
          {
            "astId": 22,
            "contract": "contracts/MedicalContract.sol:MedicalContract",
            "label": "doctorAddress",
            "offset": 0,
            "slot": "0",
            "type": "t_address"
          },
          {
            "astId": 24,
            "contract": "contracts/MedicalContract.sol:MedicalContract",
            "label": "crm",
            "offset": 0,
            "slot": "1",
            "type": "t_string_storage"
          }
        ],
        "numberOfBytes": "64"
      },
      "t_struct(Patient)20_storage": {
        "encoding": "inplace",
        "label": "struct MedicalContract.Patient",
        "members": [
          {
            "astId": 9,
            "contract": "contracts/MedicalContract.sol:MedicalContract",
            "label": "name",
            "offset": 0,
            "slot": "0",
            "type": "t_string_storage"
          },
          {
            "astId": 11,
            "contract": "contracts/MedicalContract.sol:MedicalContract",
            "label": "cpf",
            "offset": 0,
            "slot": "1",
            "type": "t_string_storage"
          },
          {
            "astId": 13,
            "contract": "contracts/MedicalContract.sol:MedicalContract",
            "label": "age",
            "offset": 0,
            "slot": "2",
            "type": "t_uint256"
          },
          {
            "astId": 15,
            "contract": "contracts/MedicalContract.sol:MedicalContract",
            "label": "priority",
            "offset": 0,
            "slot": "3",
            "type": "t_uint256"
          },
          {
            "astId": 17,
            "contract": "contracts/MedicalContract.sol:MedicalContract",
            "label": "necessity",
            "offset": 0,
            "slot": "4",
            "type": "t_string_storage"
          },
          {
            "astId": 19,
            "contract": "contracts/MedicalContract.sol:MedicalContract",
            "label": "doctorAddress",
            "offset": 0,
            "slot": "5",
            "type": "t_address"
          }
        ],
        "numberOfBytes": "192"
      },
      "t_uint256": {
        "encoding": "inplace",
        "label": "uint256",
        "numberOfBytes": "32"
      }
    }
  }
}