{
  "address": "0xaF26145d3c11c81fbC950806cbe86F725D783c9b",
  "abi": [
    {
      "inputs": [
        {
          "internalType": "string",
          "name": "_contractTitle",
          "type": "string"
        }
      ],
      "stateMutability": "nonpayable",
      "type": "constructor"
    },
    {
      "inputs": [
        {
          "internalType": "uint256",
          "name": "",
          "type": "uint256"
        }
      ],
      "name": "RamdomAge",
      "outputs": [
        {
          "internalType": "uint256",
          "name": "",
          "type": "uint256"
        }
      ],
      "stateMutability": "view",
      "type": "function"
    },
    {
      "inputs": [
        {
          "internalType": "uint256",
          "name": "",
          "type": "uint256"
        }
      ],
      "name": "RamdomCurabilityLevels",
      "outputs": [
        {
          "internalType": "uint256",
          "name": "",
          "type": "uint256"
        }
      ],
      "stateMutability": "view",
      "type": "function"
    },
    {
      "inputs": [
        {
          "internalType": "uint256",
          "name": "",
          "type": "uint256"
        }
      ],
      "name": "RamdomUrgencyLevels",
      "outputs": [
        {
          "internalType": "uint256",
          "name": "",
          "type": "uint256"
        }
      ],
      "stateMutability": "view",
      "type": "function"
    },
    {
      "inputs": [
        {
          "internalType": "uint256",
          "name": "",
          "type": "uint256"
        }
      ],
      "name": "RandomBloodType",
      "outputs": [
        {
          "internalType": "string",
          "name": "",
          "type": "string"
        }
      ],
      "stateMutability": "view",
      "type": "function"
    },
    {
      "inputs": [
        {
          "internalType": "uint256",
          "name": "",
          "type": "uint256"
        }
      ],
      "name": "RandomCPF",
      "outputs": [
        {
          "internalType": "string",
          "name": "",
          "type": "string"
        }
      ],
      "stateMutability": "view",
      "type": "function"
    },
    {
      "inputs": [
        {
          "internalType": "uint256",
          "name": "",
          "type": "uint256"
        }
      ],
      "name": "RandomDisease",
      "outputs": [
        {
          "internalType": "string",
          "name": "",
          "type": "string"
        }
      ],
      "stateMutability": "view",
      "type": "function"
    },
    {
      "inputs": [
        {
          "internalType": "uint256",
          "name": "",
          "type": "uint256"
        }
      ],
      "name": "RandomName",
      "outputs": [
        {
          "internalType": "string",
          "name": "",
          "type": "string"
        }
      ],
      "stateMutability": "view",
      "type": "function"
    },
    {
      "inputs": [
        {
          "internalType": "address",
          "name": "_doctorAddress",
          "type": "address"
        },
        {
          "internalType": "string",
          "name": "_crm",
          "type": "string"
        }
      ],
      "name": "addDoctor",
      "outputs": [],
      "stateMutability": "nonpayable",
      "type": "function"
    },
    {
      "inputs": [
        {
          "internalType": "string",
          "name": "_name",
          "type": "string"
        },
        {
          "internalType": "string",
          "name": "_cpf",
          "type": "string"
        },
        {
          "internalType": "uint256",
          "name": "_birthDate",
          "type": "uint256"
        },
        {
          "internalType": "string",
          "name": "_bloodType",
          "type": "string"
        },
        {
          "internalType": "uint256",
          "name": "_recipientAge",
          "type": "uint256"
        },
        {
          "internalType": "address",
          "name": "_patientWalletAddress",
          "type": "address"
        },
        {
          "internalType": "uint256",
          "name": "_organSize",
          "type": "uint256"
        },
        {
          "internalType": "uint256",
          "name": "_urgency",
          "type": "uint256"
        },
        {
          "internalType": "string",
          "name": "_disease",
          "type": "string"
        },
        {
          "internalType": "uint256",
          "name": "_curability",
          "type": "uint256"
        },
        {
          "internalType": "uint256",
          "name": "_qConstant",
          "type": "uint256"
        }
      ],
      "name": "addPatient",
      "outputs": [],
      "stateMutability": "nonpayable",
      "type": "function"
    },
    {
      "inputs": [
        {
          "internalType": "uint256",
          "name": "",
          "type": "uint256"
        }
      ],
      "name": "allPatients",
      "outputs": [
        {
          "internalType": "string",
          "name": "name",
          "type": "string"
        },
        {
          "internalType": "string",
          "name": "cpf",
          "type": "string"
        },
        {
          "internalType": "uint256",
          "name": "birthDate",
          "type": "uint256"
        },
        {
          "internalType": "address",
          "name": "doctorAddress",
          "type": "address"
        },
        {
          "internalType": "address",
          "name": "patientWalletAddress",
          "type": "address"
        },
        {
          "internalType": "string",
          "name": "bloodType",
          "type": "string"
        },
        {
          "internalType": "uint256",
          "name": "recipientAge",
          "type": "uint256"
        },
        {
          "internalType": "uint256",
          "name": "organSize",
          "type": "uint256"
        },
        {
          "internalType": "uint256",
          "name": "urgency",
          "type": "uint256"
        },
        {
          "internalType": "uint256",
          "name": "curability",
          "type": "uint256"
        },
        {
          "internalType": "uint256",
          "name": "qConstant",
          "type": "uint256"
        },
        {
          "internalType": "uint256",
          "name": "queueEntryDate",
          "type": "uint256"
        },
        {
          "internalType": "string",
          "name": "disease",
          "type": "string"
        }
      ],
      "stateMutability": "view",
      "type": "function"
    },
    {
      "inputs": [],
      "name": "contractTitle",
      "outputs": [
        {
          "internalType": "string",
          "name": "",
          "type": "string"
        }
      ],
      "stateMutability": "view",
      "type": "function"
    },
    {
      "inputs": [
        {
          "internalType": "address",
          "name": "",
          "type": "address"
        }
      ],
      "name": "doctors",
      "outputs": [
        {
          "internalType": "string",
          "name": "crm",
          "type": "string"
        },
        {
          "internalType": "address",
          "name": "doctorAddress",
          "type": "address"
        }
      ],
      "stateMutability": "view",
      "type": "function"
    },
    {
      "inputs": [
        {
          "internalType": "address",
          "name": "_patientAddress",
          "type": "address"
        },
        {
          "internalType": "uint256",
          "name": "_newPriority",
          "type": "uint256"
        }
      ],
      "name": "elevatePriority",
      "outputs": [],
      "stateMutability": "nonpayable",
      "type": "function"
    },
    {
      "inputs": [],
      "name": "generateRandomPatient",
      "outputs": [],
      "stateMutability": "nonpayable",
      "type": "function"
    },
    {
      "inputs": [],
      "name": "getAllPatients",
      "outputs": [
        {
          "components": [
            {
              "internalType": "string",
              "name": "name",
              "type": "string"
            },
            {
              "internalType": "string",
              "name": "cpf",
              "type": "string"
            },
            {
              "internalType": "uint256",
              "name": "birthDate",
              "type": "uint256"
            },
            {
              "internalType": "address",
              "name": "doctorAddress",
              "type": "address"
            },
            {
              "internalType": "address",
              "name": "patientWalletAddress",
              "type": "address"
            },
            {
              "internalType": "string",
              "name": "bloodType",
              "type": "string"
            },
            {
              "internalType": "uint256",
              "name": "recipientAge",
              "type": "uint256"
            },
            {
              "internalType": "uint256",
              "name": "organSize",
              "type": "uint256"
            },
            {
              "internalType": "uint256",
              "name": "urgency",
              "type": "uint256"
            },
            {
              "internalType": "uint256",
              "name": "curability",
              "type": "uint256"
            },
            {
              "internalType": "uint256",
              "name": "qConstant",
              "type": "uint256"
            },
            {
              "internalType": "uint256",
              "name": "queueEntryDate",
              "type": "uint256"
            },
            {
              "internalType": "string",
              "name": "disease",
              "type": "string"
            }
          ],
          "internalType": "struct MedicalContract.Patient[]",
          "name": "",
          "type": "tuple[]"
        }
      ],
      "stateMutability": "view",
      "type": "function"
    },
    {
      "inputs": [
        {
          "internalType": "address",
          "name": "_doctorAddress",
          "type": "address"
        }
      ],
      "name": "getAllPatientsByDoctor",
      "outputs": [
        {
          "components": [
            {
              "internalType": "string",
              "name": "name",
              "type": "string"
            },
            {
              "internalType": "string",
              "name": "cpf",
              "type": "string"
            },
            {
              "internalType": "uint256",
              "name": "birthDate",
              "type": "uint256"
            },
            {
              "internalType": "address",
              "name": "doctorAddress",
              "type": "address"
            },
            {
              "internalType": "address",
              "name": "patientWalletAddress",
              "type": "address"
            },
            {
              "internalType": "string",
              "name": "bloodType",
              "type": "string"
            },
            {
              "internalType": "uint256",
              "name": "recipientAge",
              "type": "uint256"
            },
            {
              "internalType": "uint256",
              "name": "organSize",
              "type": "uint256"
            },
            {
              "internalType": "uint256",
              "name": "urgency",
              "type": "uint256"
            },
            {
              "internalType": "uint256",
              "name": "curability",
              "type": "uint256"
            },
            {
              "internalType": "uint256",
              "name": "qConstant",
              "type": "uint256"
            },
            {
              "internalType": "uint256",
              "name": "queueEntryDate",
              "type": "uint256"
            },
            {
              "internalType": "string",
              "name": "disease",
              "type": "string"
            }
          ],
          "internalType": "struct MedicalContract.Patient[]",
          "name": "",
          "type": "tuple[]"
        }
      ],
      "stateMutability": "view",
      "type": "function"
    },
    {
      "inputs": [
        {
          "internalType": "address",
          "name": "_doctorAddress",
          "type": "address"
        }
      ],
      "name": "getDoctorCRM",
      "outputs": [
        {
          "internalType": "string",
          "name": "",
          "type": "string"
        }
      ],
      "stateMutability": "view",
      "type": "function"
    },
    {
      "inputs": [
        {
          "internalType": "address",
          "name": "_patientAddress",
          "type": "address"
        }
      ],
      "name": "getPatientByAddress",
      "outputs": [
        {
          "internalType": "string",
          "name": "",
          "type": "string"
        },
        {
          "internalType": "string",
          "name": "",
          "type": "string"
        },
        {
          "internalType": "uint256",
          "name": "",
          "type": "uint256"
        },
        {
          "internalType": "address",
          "name": "",
          "type": "address"
        },
        {
          "internalType": "address",
          "name": "",
          "type": "address"
        },
        {
          "internalType": "string",
          "name": "",
          "type": "string"
        },
        {
          "internalType": "uint256",
          "name": "",
          "type": "uint256"
        },
        {
          "internalType": "uint256",
          "name": "",
          "type": "uint256"
        },
        {
          "internalType": "uint256",
          "name": "",
          "type": "uint256"
        },
        {
          "internalType": "uint256",
          "name": "",
          "type": "uint256"
        },
        {
          "internalType": "uint256",
          "name": "",
          "type": "uint256"
        },
        {
          "internalType": "string",
          "name": "",
          "type": "string"
        },
        {
          "internalType": "uint256",
          "name": "",
          "type": "uint256"
        },
        {
          "components": [
            {
              "internalType": "address",
              "name": "patientAddress",
              "type": "address"
            },
            {
              "internalType": "uint256",
              "name": "oldValue",
              "type": "uint256"
            },
            {
              "internalType": "uint256",
              "name": "newValue",
              "type": "uint256"
            },
            {
              "internalType": "string",
              "name": "field",
              "type": "string"
            },
            {
              "internalType": "address",
              "name": "doctorAddress",
              "type": "address"
            },
            {
              "internalType": "uint256",
              "name": "date",
              "type": "uint256"
            }
          ],
          "internalType": "struct MedicalContract.Record[]",
          "name": "",
          "type": "tuple[]"
        }
      ],
      "stateMutability": "view",
      "type": "function"
    },
    {
      "inputs": [
        {
          "internalType": "address",
          "name": "_patientAddress",
          "type": "address"
        }
      ],
      "name": "getPatientRecords",
      "outputs": [
        {
          "components": [
            {
              "internalType": "address",
              "name": "patientAddress",
              "type": "address"
            },
            {
              "internalType": "uint256",
              "name": "oldValue",
              "type": "uint256"
            },
            {
              "internalType": "uint256",
              "name": "newValue",
              "type": "uint256"
            },
            {
              "internalType": "string",
              "name": "field",
              "type": "string"
            },
            {
              "internalType": "address",
              "name": "doctorAddress",
              "type": "address"
            },
            {
              "internalType": "uint256",
              "name": "date",
              "type": "uint256"
            }
          ],
          "internalType": "struct MedicalContract.Record[]",
          "name": "",
          "type": "tuple[]"
        }
      ],
      "stateMutability": "view",
      "type": "function"
    },
    {
      "inputs": [],
      "name": "getTitle",
      "outputs": [
        {
          "internalType": "string",
          "name": "",
          "type": "string"
        }
      ],
      "stateMutability": "view",
      "type": "function"
    },
    {
      "inputs": [],
      "name": "owner",
      "outputs": [
        {
          "internalType": "address",
          "name": "",
          "type": "address"
        }
      ],
      "stateMutability": "view",
      "type": "function"
    },
    {
      "inputs": [
        {
          "internalType": "address",
          "name": "",
          "type": "address"
        },
        {
          "internalType": "uint256",
          "name": "",
          "type": "uint256"
        }
      ],
      "name": "patientsByDoctor",
      "outputs": [
        {
          "internalType": "string",
          "name": "name",
          "type": "string"
        },
        {
          "internalType": "string",
          "name": "cpf",
          "type": "string"
        },
        {
          "internalType": "uint256",
          "name": "birthDate",
          "type": "uint256"
        },
        {
          "internalType": "address",
          "name": "doctorAddress",
          "type": "address"
        },
        {
          "internalType": "address",
          "name": "patientWalletAddress",
          "type": "address"
        },
        {
          "internalType": "string",
          "name": "bloodType",
          "type": "string"
        },
        {
          "internalType": "uint256",
          "name": "recipientAge",
          "type": "uint256"
        },
        {
          "internalType": "uint256",
          "name": "organSize",
          "type": "uint256"
        },
        {
          "internalType": "uint256",
          "name": "urgency",
          "type": "uint256"
        },
        {
          "internalType": "uint256",
          "name": "curability",
          "type": "uint256"
        },
        {
          "internalType": "uint256",
          "name": "qConstant",
          "type": "uint256"
        },
        {
          "internalType": "uint256",
          "name": "queueEntryDate",
          "type": "uint256"
        },
        {
          "internalType": "string",
          "name": "disease",
          "type": "string"
        }
      ],
      "stateMutability": "view",
      "type": "function"
    },
    {
      "inputs": [
        {
          "internalType": "address",
          "name": "",
          "type": "address"
        },
        {
          "internalType": "uint256",
          "name": "",
          "type": "uint256"
        }
      ],
      "name": "records",
      "outputs": [
        {
          "internalType": "address",
          "name": "patientAddress",
          "type": "address"
        },
        {
          "internalType": "uint256",
          "name": "oldValue",
          "type": "uint256"
        },
        {
          "internalType": "uint256",
          "name": "newValue",
          "type": "uint256"
        },
        {
          "internalType": "string",
          "name": "field",
          "type": "string"
        },
        {
          "internalType": "address",
          "name": "doctorAddress",
          "type": "address"
        },
        {
          "internalType": "uint256",
          "name": "date",
          "type": "uint256"
        }
      ],
      "stateMutability": "view",
      "type": "function"
    }
  ],
  "transactionHash": "0x1c4e199a522fe991aefb8abbd19e46e70ba3f629b49180d5169b48d2677464bd",
  "args": [
    "Pulmão"
  ],
  "numDeployments": 19,
  "solcInputHash": "871a46903816c4f6bb41eeb64cbb2c4e",
  "bytecode": "0x60806040523462001a4d57620050ff803803806200001d8162001ad4565b92833981019060208183031262001a4d578051906001600160401b03821162001a4d570181601f8201121562001a4d578051906001600160401b038211620011555762000074601f8301601f191660200162001ad4565b928284526020838301011162001a4d5760005b82811062001a375783600060208583010152620000a362001a52565b620000ad62001a94565b60048152634a6f616f60e01b60208201528152620000ca62001a94565b60058152644d6172696160d81b60208201526020820152620000eb62001a94565b60048152634a6f736560e01b602082015260408201526200010b62001a94565b6003815262416e6160e81b602082015260608201526200012a62001a94565b60098152684672616e636973636f60b81b602082015260808201526200014f62001a94565b6007815266416e746f6e696f60c81b602082015260a08201526200017262001a94565b6004815263263ab4bd60e11b602082015260c08201526200019262001a94565b60058152645061756c6f60d81b602082015260e0820152620001b362001a94565b60068152654361726c6f7360d01b6020820152610100820152620001d662001a94565b600681526513585b9bd95b60d21b6020820152610120820152620001f962001a94565b6005815264506564726f60d81b60208201526101408201526200021b62001a94565b60098152684672616e636973636160b81b60208201526101608201526200024162001a94565b60068152654d6172636f7360d01b60208201526101808201526200026462001a94565b60088152675261696d756e646f60c01b60208201526101a08201526200028962001a94565b600981526853656261737469616f60b81b60208201526101c0820152620002af62001a94565b6007815266416e746f6e696160c81b60208201526101e0820152620002d362001a94565b60078152664d617263656c6f60c81b6020820152610200820152620002f762001a94565b60068152654d617263696160d01b60208201526102208201526200031a62001a94565b60078152665269636172646f60c81b60208201526102408201526200033e62001a94565b60088152674665726e616e646f60c01b602082015261026082015260025460146002558060141062001987575b5060026000908152600080516020620050df833981519152915b601482106200186257836200039962001a52565b620003a362001a94565b6002815261412b60f01b60208201528152620003be62001a94565b6002815261412d60f01b60208201526020820152620003dc62001a94565b6002815261422b60f01b60208201526040820152620003fa62001a94565b6002815261422d60f01b602082015260608201526200041862001a94565b600381526241422b60e81b602082015260808201526200043762001a94565b600381526241422d60e81b602082015260a08201526200045662001a94565b60028152614f2b60f01b602082015260c08201526200047462001a94565b60028152614f2d60f01b602082015260e08201526200049262001a94565b6002815261412b60f01b6020820152610100820152620004b162001a94565b6002815261412d60f01b6020820152610120820152620004d062001a94565b6002815261422b60f01b6020820152610140820152620004ef62001a94565b6002815261422d60f01b60208201526101608201526200050e62001a94565b600381526241422b60e81b60208201526101808201526200052e62001a94565b600381526241422d60e81b60208201526101a08201526200054e62001a94565b60028152614f2b60f01b60208201526101c08201526200056d62001a94565b60028152614f2d60f01b60208201526101e08201526200058c62001a94565b6002815261412b60f01b6020820152610200820152620005ab62001a94565b6002815261412d60f01b6020820152610220820152620005ca62001a94565b6002815261422b60f01b6020820152610240820152620005e962001a94565b6002815261422d60f01b6020820152610260820152600354601460035580601410620017a1575b50600360009081527fc2575a0e9e593c00f959f8c92f12db2869c3395a3b0502d05e2516446f71f85b915b601482106200167c57836200064f62001a52565b6200065962001a94565b600e81526d03132332e3435362e3738392d30360941b602082015281526200068062001a94565b600e81526d03938372e3635342e3332312d30360941b60208201526020820152620006aa62001a94565b600e81526d03132332e3435362e3738392d30360941b60208201526040820152620006d462001a94565b600e81526d03938372e3635342e3332312d30360941b60208201526060820152620006fe62001a94565b600e81526d03132332e3435362e3738392d30360941b602082015260808201526200072862001a94565b600e81526d03938372e3635342e3332312d30360941b602082015260a08201526200075262001a94565b600e81526d03132332e3435362e3738392d30360941b602082015260c08201526200077c62001a94565b600e81526d03938372e3635342e3332312d30360941b602082015260e0820152620007a662001a94565b600e81526d03132332e3435362e3738392d30360941b6020820152610100820152620007d162001a94565b600e81526d03938372e3635342e3332312d30360941b6020820152610120820152620007fc62001a94565b600e81526d03132332e3435362e3738392d30360941b60208201526101408201526200082762001a94565b600e81526d03938372e3635342e3332312d30360941b60208201526101608201526200085262001a94565b600e81526d03132332e3435362e3738392d30360941b60208201526101808201526200087d62001a94565b600e81526d03938372e3635342e3332312d30360941b60208201526101a0820152620008a862001a94565b600e81526d03132332e3435362e3738392d30360941b60208201526101c0820152620008d362001a94565b600e81526d03938372e3635342e3332312d30360941b60208201526101e0820152620008fe62001a94565b600e81526d03132332e3435362e3738392d30360941b60208201526102008201526200092962001a94565b600e81526d03938372e3635342e3332312d30360941b60208201526102208201526200095462001a94565b600e81526d03132332e3435362e3738392d30360941b60208201526102408201526200097f62001a94565b600e81526d03938372e3635342e3332312d30360941b6020820152610260820152600454601460045580601410620015bb575b50600460009081527f8a35acfbc15ff81a39ae7d344fd709f28e8600b4aa8c65c6b64bfe7fe36bd19b915b60148210620014965760405184906001600160401b036102208201908111908211176200115557610220810160405262000a1662001a94565b601481527f486970657274656e73616f2050756c6d6f6e61720000000000000000000000006020820152815262000a4c62001a94565b601f81527f42726f6e71756965637461736961206e616f20666962726f63697374696361006020820152602082015262000a8562001a94565b600f81526e466962726f7365206369737469636160881b6020820152604082015262000ab062001a94565b601c81527f446f656e636120496e7465727374696369616c2050756c6d6f6e6172000000006020820152606082015262000ae962001a94565b601781527f446f656e63612050756c6d6f6e61722043726f6e6963610000000000000000006020820152608082015262000b2262001ab4565b602481527f446f656e63612052656e616c2043726f6e696361202866617365207465726d696020820152636e616c2960e01b604082015260a082015262000b6862001a94565b601381527f43657261746f706174696120626f6c686f736100000000000000000000000000602082015260c082015262000ba162001a94565b600a81526943657261746f636f6e6560b01b602082015260e082015262000bc762001a94565b6008815267436572617469746560c01b602082015261010082015262000bec62001a94565b601e81527f517565696d616475726173207175696d6963617320646120636f726e65610000602082015261012082015262000c2662001a94565b601f81527f44697374726f6669617320646f20657374726f6d6120646120636f726e656100602082015261014082015262000c6062001a94565b60088152674c657563656d696160c01b602082015261016082015262000c8562001a94565b60088152674c696e666f6d617360c01b602082015261018082015262000caa62001a94565b601481527f446f656e63617320646f732067616e676c696f7300000000000000000000000060208201526101a082015262000ce462001a94565b600f81526e446f656e63617320646f206261636f60881b60208201526101c082015262000d1062001ab4565b602381527f416e656d696120677261766520616471756972696461206f7520636f6e67656e60208201526269746160e81b60408201526101e082015262000d5662001a94565b600f81526e4d69656c6f646973706c617369617360881b6020820152610200820152600554601160055580601110620013e6575b5060056000908152600080516020620050bf833981519152915b60118210620012c1578362000db862001a73565b6050815260466020820152605a6040820152605f606082015260556080820152602860a0820152604660c0820152603c60e0820152604b610100820152605f6101208201526032610140820152603c610160820152603761018082015260466101a082015260326101c0820152605a6101e0820152605561020082015260506102208201526055610240820152605f610260820152605a61028082015260065460156006558060151062001267575b50600660005260206000209060005b601581106200124f578362000e8a62001a73565b6046815260506020820152603c60408201526028606082015260326080820152604660a0820152601e60c0820152602860e08201526032610100820152605a61012082015260466101408201526050610160820152604b61018082015260466101a082015260416101c082015260506101e0820152604b6102008201526046610220820152604b610240820152605a6102608201526055610280820152600754601560075580601510620011f5575b50600760005260206000209060005b60158110620011dd578362000f5c62001a73565b6041815260376020820152603c60408201526032606082015260326080820152602860a0820152601e60c0820152603760e08201526032610100820152603c610120820152602d610140820152601e610160820152602861018082015260326101a082015260286101c0820152602d6101e0820152603761020082015260376102208201526037610240820152602d610260820152603761028082015260085460156008558060151062001183575b50600860005260206000209060005b601581106200116b57600080546001600160a01b03191633179055835184906001600160401b038111620011555760019062001057825462001afa565b601f811162001113575b50602092601f8211600114620010ae5792819293600092620010a2575b5050600019600383901b1c191690821b1790555b60405161356e908162001b518239f35b0151905083806200107e565b601f198216938360005260206000209160005b868110620010fc575083859610620010e2575b505050811b01905562001092565b015160001960f88460031b161c19169055838080620010d4565b8183015184559285019260209283019201620010c1565b6200114390836000526020600020601f840160051c810191602085106200114a575b601f0160051c019062001b37565b8362001061565b909150819062001135565b634e487b7160e01b600052604160045260246000fd5b600190602060ff84511693019281850155016200101a565b6008600052620011d6907ff3f7a9fe364faab93b216da50a3214154f22a0a2b415b23a84c8169e8b636ee3017ff3f7a9fe364faab93b216da50a3214154f22a0a2b415b23a84c8169e8b636ef862001b37565b826200100b565b600190602060ff845116930192818501550162000f48565b600760005262001248907fa66cc928b5edb82af9bd49922954155ab7b0942694bea4ce44661d9a8736c688017fa66cc928b5edb82af9bd49922954155ab7b0942694bea4ce44661d9a8736c69d62001b37565b8262000f39565b600190602060ff845116930192818501550162000e76565b6006600052620012ba907ff652222313e28459528d920b65115c16c04f3efc82aaedc97be59f3f377c0d3f017ff652222313e28459528d920b65115c16c04f3efc82aaedc97be59f3f377c0d5462001b37565b8262000e67565b80518051906001600160401b0382116200115557620012e1855462001afa565b601f8111620013b0575b50602090601f83116001146200133c57928260019493602093869560009262001330575b5050600019600383901b1c191690841b1786555b0193019101909162000da4565b0151905089806200130f565b908560005260206000209160005b601f19851681106200139757509260209260019592869583601f198116106200137d575b505050831b8301865562001323565b015160001960f88460031b161c191690558880806200136e565b919260206001819286850151815501940192016200134a565b620013df90866000526020600020601f850160051c810191602086106200114a57601f0160051c019062001b37565b86620012eb565b6005600052600080516020620050bf833981519152907f036b6384b5eca791c62761152d0c79bb0604c104a5fb6f4eb0703f3154bb3dc15b81830181106200143057505062000d8a565b806200143f6001925462001afa565b806200144e575b50016200141e565b601f81118314620014665750600081555b8662001446565b62001486908260005283601f6020600020920160051c8201910162001b37565b600060208120818355556200145f565b80518051906001600160401b0382116200115557620014b6855462001afa565b601f811162001585575b50602090601f83116001146200151157928260019493602093869560009262001505575b5050600019600383901b1c191690841b1786555b01930191019091620009dd565b015190508980620014e4565b908560005260206000209160005b601f19851681106200156c57509260209260019592869583601f1981161062001552575b505050831b83018655620014f8565b015160001960f88460031b161c1916905588808062001543565b919260206001819286850151815501940192016200151f565b620015b490866000526020600020601f850160051c810191602086106200114a57601f0160051c019062001b37565b86620014c0565b60046000527f8a35acfbc15ff81a39ae7d344fd709f28e8600b4aa8c65c6b64bfe7fe36bd19b907f8a35acfbc15ff81a39ae7d344fd709f28e8600b4aa8c65c6b64bfe7fe36bd1af5b818301811062001616575050620009b2565b80620016256001925462001afa565b8062001634575b500162001604565b601f811183146200164c5750600081555b866200162c565b6200166c908260005283601f6020600020920160051c8201910162001b37565b6000602081208183555562001645565b80518051906001600160401b03821162001155576200169c855462001afa565b601f81116200176b575b50602090601f8311600114620016f7579282600194936020938695600092620016eb575b5050600019600383901b1c191690841b1786555b019301910190916200063b565b015190508980620016ca565b908560005260206000209160005b601f19851681106200175257509260209260019592869583601f1981161062001738575b505050831b83018655620016de565b015160001960f88460031b161c1916905588808062001729565b9192602060018192868501518155019401920162001705565b6200179a90866000526020600020601f850160051c810191602086106200114a57601f0160051c019062001b37565b86620016a6565b60036000527fc2575a0e9e593c00f959f8c92f12db2869c3395a3b0502d05e2516446f71f85b907fc2575a0e9e593c00f959f8c92f12db2869c3395a3b0502d05e2516446f71f86f5b8183018110620017fc57505062000610565b806200180b6001925462001afa565b806200181a575b5001620017ea565b601f81118314620018325750600081555b8662001812565b62001852908260005283601f6020600020920160051c8201910162001b37565b600060208120818355556200182b565b80518051906001600160401b038211620011555762001882855462001afa565b601f811162001951575b50602090601f8311600114620018dd579282600194936020938695600092620018d1575b5050600019600383901b1c191690841b1786555b0193019101909162000385565b015190508980620018b0565b908560005260206000209160005b601f19851681106200193857509260209260019592869583601f198116106200191e575b505050831b83018655620018c4565b015160001960f88460031b161c191690558880806200190f565b91926020600181928685015181550194019201620018eb565b6200198090866000526020600020601f850160051c810191602086106200114a57601f0160051c019062001b37565b866200188c565b6002600052600080516020620050df833981519152907f405787fa12a823e0f2b7631cc41b3ba8828b3321ca811111fa75cd3aa3bb5ae25b8183018110620019d15750506200036b565b80620019e06001925462001afa565b80620019ef575b5001620019bf565b601f8111831462001a075750600081555b86620019e7565b62001a27908260005283601f6020600020920160051c8201910162001b37565b6000602081208183555562001a00565b8060208092840101518282870101520162000087565b600080fd5b6040519061028082016001600160401b038111838210176200115557604052565b604051906102a082016001600160401b038111838210176200115557604052565b60408051919082016001600160401b038111838210176200115557604052565b60405190606082016001600160401b038111838210176200115557604052565b6040519190601f01601f191682016001600160401b038111838210176200115557604052565b90600182811c9216801562001b2c575b602083101462001b1657565b634e487b7160e01b600052602260045260246000fd5b91607f169162001b0a565b81811062001b43575050565b6000815560010162001b3756fe6080604052600436101561001257600080fd5b60003560e01c806318a231a91461224c57806318bd4847146121755780631901351414612124578063276f410614611a545780633a3c977614611a275780633ac95eaa146119d65780633cc684a1146119245780637cf1e445146116bc5780637dfc0bdb14610dad57806382a6c0ac14610d055780638da5cb5b14610cdc5780639c33e95d14610c39578063a2ac4a8e14610be8578063a90e609b14610bb5578063a9208eae14610805578063a9583c22146107a4578063aa9ebfdb14610753578063ba5c033514610684578063c71c7d3a14610633578063d8f608df146103f8578063e8113e7314610350578063fd190da8146102015763ff3c1a8f1461011957600080fd5b346101fc5760003660031901126101fc576040516000600180549061013d826125ba565b808552918181169081156101d5575060011461017c575b6101788461016481860382612543565b604051918291602083526020830190612274565b0390f35b600081815292507fb10e2d527612073b26eecdfd717e6a320cf44b4afac2b0732d9fcbe2b7fa0cf65b8284106101bd57505050810160200161016482610154565b805460208587018101919091529093019281016101a5565b60ff191660208087019190915292151560051b850190920192506101649150839050610154565b600080fd5b346101fc576020806003193601126101fc5761021b6123ca565b9033600052600a80825260018060a01b0390816001946102458287604060002001541615156127b0565b16600052600b9283815260406000209182549361026185612d23565b9561026f6040519788612543565b8587526000948552838520928488015b87871061029457604051806101788b826122b4565b600d868b926040516102a58161250c565b6102ae896125f4565b81526102bb858a016125f4565b83820152600289015460408201528760038a01541660608201528760048a01541660808201526102ed60058a016125f4565b60a0820152600689015460c0820152600789015460e082015260088901546101008201526009890154610120820152858901546101408201528689015461016082015261033c600c8a016125f4565b61018082015281520195019601959361027f565b346101fc576020806003193601126101fc576001600160a01b03806103736123ca565b169081600052600a835260016040600020015416156103b557600052600a81526103a060406000206125f4565b90610178604051928284938452830190612274565b6064826040519062461bcd60e51b825280600483015260248201527f446f63746f722061646472657373206973206e6f7420726567697374657265646044820152fd5b346101fc5760203660031901126101fc57600435600c548110156101fc57600c600052600d026104497fdf6966c971051c3d54ec59162606531493a51404a002842f56009d7e5cf4a8c782016125f4565b6101786104777fdf6966c971051c3d54ec59162606531493a51404a002842f56009d7e5cf4a8c884016125f4565b7fdf6966c971051c3d54ec59162606531493a51404a002842f56009d7e5cf4a8c98401547fdf6966c971051c3d54ec59162606531493a51404a002842f56009d7e5cf4a8ca8501547fdf6966c971051c3d54ec59162606531493a51404a002842f56009d7e5cf4a8cb860154929591926001600160a01b03918216911661051f7fdf6966c971051c3d54ec59162606531493a51404a002842f56009d7e5cf4a8cc84016125f4565b7fdf6966c971051c3d54ec59162606531493a51404a002842f56009d7e5cf4a8cd8401547fdf6966c971051c3d54ec59162606531493a51404a002842f56009d7e5cf4a8ce850154907fdf6966c971051c3d54ec59162606531493a51404a002842f56009d7e5cf4a8cf860154927fdf6966c971051c3d54ec59162606531493a51404a002842f56009d7e5cf4a8d0870154947fdf6966c971051c3d54ec59162606531493a51404a002842f56009d7e5cf4a8d1880154966106267fdf6966c971051c3d54ec59162606531493a51404a002842f56009d7e5cf4a8d37fdf6966c971051c3d54ec59162606531493a51404a002842f56009d7e5cf4a8d28b01549a016125f4565b996040519d8e9d8e612702565b346101fc5760203660031901126101fc576004356002548110156101fc576101646101789160026000527f405787fa12a823e0f2b7631cc41b3ba8828b3321ca811111fa75cd3aa3bb5ace016125f4565b346101fc5760203660031901126101fc5761069d6123ca565b6106a6906130a9565b9a9c919860409a919a98939798969496519d8e9d8e946101c080875286016106cd91612274565b85810360208701526106de91612274565b6040909401526001600160a01b0391821660608e01521660808c01528a810360a08c015261070b91612274565b9460c08a015260e089015261010088015261012087015261014086015284810361016086015261073a91612274565b906101808401528281036101a0840152610178916123e0565b346101fc5760203660031901126101fc576004356005548110156101fc576101646101789160056000527f036b6384b5eca791c62761152d0c79bb0604c104a5fb6f4eb0703f3154bb3db0016125f4565b346101fc5760203660031901126101fc576107fb6001600160a01b03806107c96123ca565b16600052600a60205260406000209060016107e3836125f4565b92015416604051928392604084526040840190612274565b9060208301520390f35b346101fc5760403660031901126101fc5761081e6123ca565b336000908152600a6020526040902060010154610845906001600160a01b031615156127b0565b336000908152600b602052604081206001600160a01b0390921691905b8154811015610bb3578261087682846126e6565b50600401546001600160a01b0316146108975761089290612812565b610862565b9060086108a483836126e6565b5001549260249384351115610b5557806000526009908160205260406000209160086108d086866126e6565b50015492604051926108e1846124f1565b83526020830193845260408301873581526040519160408301936001600160401b039484811086821117610b4057604052835268557267c3aa6e63696160b81b6020840152606085019283523360808601524260a08601528054600160401b811015610b2b5761095691600182018155612794565b959095610b1657845186546001600160a01b0319166001600160a01b0391909116178655516001860155516002850155518051918211610b015761099d60038501546125ba565b601f8111610aba575b50602090601f8311600114610a395793600560a0610a1a95858a9896610a269a9660089c98600092610a2e575b50508160011b916000199060031b1c19161760038501555b60048401600180841b036080830151166bffffffffffffffffffffffff841b82541617905501519101556126e6565b508385359101556126ab565b509135910155005b015190508d806109d3565b906003850160005260206000209160005b601f1985168110610aa2575060a0610a1a95600186610a269a968c9a9660059660089e9a601f19811610610a89575b505050811b0160038501556109eb565b015160001960f88460031b161c191690558d8080610a79565b91926020600181928685015181550194019201610a4a565b600385016000526020600020601f840160051c810160208510610afa575b601f830160051c82018110610aee5750506109a6565b60008155600101610ad8565b5080610ad8565b86634e487b7160e01b60005260416004526000fd5b88634e487b7160e01b60005260006004526000fd5b89634e487b7160e01b60005260416004526000fd5b8a634e487b7160e01b60005260416004526000fd5b60405162461bcd60e51b8152602060048201526031818601527f4e6577207072696f72697479206d75737420626520686967686572207468616e6044820152702063757272656e74207072696f7269747960781b6064820152608490fd5b005b346101fc5760203660031901126101fc576004356003548110156101fc57610164610be2610178926124ba565b9061269a565b346101fc5760203660031901126101fc576004356006548110156101fc5760209060066000527ff652222313e28459528d920b65115c16c04f3efc82aaedc97be59f3f377c0d3f0154604051908152f35b346101fc5760003660031901126101fc5760405160006001805490610c5d826125ba565b808552918181169081156101d55750600114610c83576101788461016481860382612543565b600081815292507fb10e2d527612073b26eecdfd717e6a320cf44b4afac2b0732d9fcbe2b7fa0cf65b828410610cc457505050810160200161016482610154565b80546020858701810191909152909301928101610cac565b346101fc5760003660031901126101fc576000546040516001600160a01b039091168152602090f35b346101fc5760403660031901126101fc57610d1e6123ca565b6001600160a01b0390811660009081526009602052604090208054602435908110156101fc57610d4d91612794565b508181541690600181015492610d9e6002830154916005610d70600386016125f4565b916004860154169401549260405196879687526020870152604086015260c0606086015260c0850190612274565b91608084015260a08301520390f35b346101fc5760003660031901126101fc57336000908152600a6020526040902060010154610de5906001600160a01b031615156127b0565b60005b6006811015610bb357604051602081013360601b81524260348301526054600081840152825260808201918083106001600160401b0384111761143b5760649260405251902006906002548110156116a6576002600052610e6a817f405787fa12a823e0f2b7631cc41b3ba8828b3321ca811111fa75cd3aa3bb5ace016125f4565b91610e7d610e7783612483565b506125f4565b6008548310156116a6576008600052827ff3f7a9fe364faab93b216da50a3214154f22a0a2b415b23a84c8169e8b636ee3015491610ebd610e77856124ba565b6040513360601b6001600160601b031916602082015242603482015260548101839052606490610efa81607481015b03601f198101835282612543565b6020815191012006906040519186602084015243406040840152604083528260608101106001600160401b0360608501111761143b57606083810160408190528451602086012033831b6001600160601b0319166080870190815242609488015260b48701889052605483526001600160a01b03909116956064939192610f8390607490612543565b0151902006916006548810156116a657877ff652222313e28459528d920b65115c16c04f3efc82aaedc97be59f3f377c0d3f0154936005548910156116a6576005600052610ff2897f036b6384b5eca791c62761152d0c79bb0604c104a5fb6f4eb0703f3154bb3db0016125f4565b976007548a10156116a65760076000527fa66cc928b5edb82af9bd49922954155ab7b0942694bea4ce44661d9a8736c6888a01546040513360601b6001600160601b031916602082019081524260348301526054820199909952909760649161105e8160748101610eec565b519020069733600052600a60205261108760018060a01b036001604060002001541615156127b0565b33600052600b6020526110fa8c6040600020604051916110a68361250c565b82528360208301528460408301523360608301528560808301528660a08301528760c08301528860e0830152896101008301528a6101208301528b610140830152426101608301528c610180830152612837565b6040519b6111078d61250c565b8c5260208c015260408b01523360608b015260808a015260a089015260c088015260e087015261010086015261012085015261014084015242610160840152610180830152600c54600160401b81101561143b5780600161116b9201600c556126ab565b9290926116905780519283516001600160401b03811161143b5761118f82546125ba565b601f811161164c575b506020601f82116001146115e35781929394956000926115d8575b50508160011b916000199060031b1c19161781555b60208201519283516001600160401b03811161143b576111eb60018401546125ba565b601f8111611591575b506020601f8211600114611522578192939495600092611517575b50508160011b916000199060031b1c19161760018301555b6040830151600283015560608301516003830180546001600160a01b039283166001600160a01b031991821617909155608085015160048501805491909316911617905560a083015180519093906001600160401b03811161143b5761129060058501546125ba565b601f81116114d0575b506020601f821160011461145c578190610180949596600092611451575b50508160011b916000199060031b1c19161760058501555b60c0810151600685015560e0810151600785015561010081015160088501556101208101516009850155610140810151600a850155610160810151600b8501550151918251926001600160401b03841161143b57611330600c8301546125ba565b601f81116113f4575b50602090601f8511600114611383579380600c9261137396600092611378575b50508160011b916000199060031b1c191617910155612812565b610de8565b015190508680611359565b90600c83016000526020600020916000601f198716905b8181106113dc575092600192879261137398600c96106113c3575b505050811b01910155612812565b015160001960f88460031b161c191690558680806113b5565b9293602060018192878601518155019501930161139a565b600c83016000526020600020601f860160051c810160208710611434575b601f830160051c82018110611428575050611339565b60008155600101611412565b5080611412565b634e487b7160e01b600052604160045260246000fd5b0151905086806112b7565b6005850160005260206000209560005b601f19841681106114b85750958291610180959697600194601f1981161061149f575b505050811b0160058501556112cf565b015160001960f88460031b161c1916905586808061148f565b8282015188556001909701966020928301920161146c565b600585016000526020600020601f830160051c810160208410611510575b601f830160051c82018110611504575050611299565b600081556001016114ee565b50806114ee565b01519050858061120f565b6001840160005260206000209060005b601f1984168110611579575060019394959683601f19811610611560575b505050811b016001830155611227565b015160001960f88460031b161c19169055858080611550565b9091602060018192858b015181550193019101611532565b600184016000526020600020601f830160051c8101602084106115d1575b601f830160051c820181106115c55750506111f4565b600081556001016115af565b50806115af565b0151905085806111b3565b8260005260206000209060005b601f1984168110611634575060019394959683601f1981161061161b575b505050811b0181556111c8565b015160001960f88460031b161c1916905585808061160e565b9091602060018192858b0151815501930191016115f0565b826000526020600020601f830160051c810160208410611689575b601f830160051c8201811061167d575050611198565b60008155600101611667565b5080611667565b634e487b7160e01b600052600060045260246000fd5b634e487b7160e01b600052603260045260246000fd5b346101fc5760403660031901126101fc576116d56123ca565b6001600160401b03906024358281116101fc576116f6903690600401612564565b60005490926001600160a01b03929091831633036118cc5782169283600052602091600a8352600192848460406000200154166118885760405192604084018481108482111761143b57604052835280830195808752600052600a81526040600020925190815192831161143b57829161177085546125ba565b601f8111611833575b5081601f84116001146117cd57506000926117c2575b5050600019600383901b1c191690831b1781555b019151166bffffffffffffffffffffffff60a01b825416179055600080f35b01519050868061178f565b9190869450601f1984168660005283600020936000905b82821061181a5750508411611801575b505050811b0181556117a3565b015160001960f88460031b161c191690558680806117f4565b84840151865589979095019493840193908101906117e4565b909192508460005282600020601f850160051c81019184861061187e575b8594939291601f89920160051c01915b82811061186f575050611779565b60008155869550889101611861565b9091508190611851565b6064906040519062461bcd60e51b82526004820152601960248201527f446f63746f7220616c72656164792072656769737465726564000000000000006044820152fd5b60405162461bcd60e51b815260206004820152602a60248201527f4f6e6c7920636f6e7472616374206f776e65722063616e2063616c6c207468696044820152693990333ab731ba34b7b760b11b6064820152608490fd5b346101fc5760403660031901126101fc5761193d6123ca565b6001600160a01b039081166000908152600b602052604090208054602435908110156101fc5761196c916126e6565b509061017861197a836125f4565b91611987600185016125f4565b9360028101549180600383015416906004830154166119a8600584016125f4565b6006840154600785015490600886015492600987015494600a88015496610626600c600b8b01549a016125f4565b346101fc5760203660031901126101fc576004356008548110156101fc5760209060086000527ff3f7a9fe364faab93b216da50a3214154f22a0a2b415b23a84c8169e8b636ee30154604051908152f35b346101fc5760203660031901126101fc576004356004548110156101fc57610164610be261017892612483565b346101fc576101603660031901126101fc576004356001600160401b0381116101fc57611a85903690600401612564565b6024356001600160401b0381116101fc57611aa4903690600401612564565b6064356001600160401b0381116101fc57611ac3903690600401612564565b60a4356001600160a01b03811681036101fc57610104356001600160401b0381116101fc57611af6903690600401612564565b9233600052600a602052611b1b60018060a01b036001604060002001541615156127b0565b33600052600b602052611ba8604060002060405190611b398261250c565b8782526020820184905260443560408301523360608301526001600160a01b038516608083015260a0820186905260843560c083015260c43560e083015260e4356101008301526101243561012083015261014435610140830152426101608301526101808201879052612837565b60405194611bb58661250c565b8552602085015260443560408501523360608501526001600160a01b0316608084015260a083015260843560c083015260c43560e083015260e435610100830152610124356101208301526101443561014083015242610160830152610180820152600c54600160401b81101561143b57806001611c369201600c556126ab565b6116905781519182516001600160401b03811161143b57611c5783546125ba565b601f81116120e0575b506020601f8211600114612078578192939460009261206d575b50508160011b916000199060031b1c19161782555b60208101519182516001600160401b03811161143b57611cb260018301546125ba565b601f8111612026575b506020601f8211600114611fb85781929394600092611fad575b50508160011b916000199060031b1c19161760018201555b6040820151600282015560608201516003820180546001600160a01b039283166001600160a01b031991821617909155608084015160048401805491909316911617905560a08201518051906001600160401b03821161143b57611d5460058401546125ba565b601f8111611f66575b50602090601f8311600114611ef05791806101809492600c94600092611ee5575b50508160011b916000199060031b1c19161760058201555b60c0840151600682015560e0840151600782015561010084015160088201556101208401516009820155610140840151600a820155610160840151600b820155019101519081516001600160401b03811161143b57611df582546125ba565b601f8111611e9d575b50602092601f8211600114611e3c5792819293600092611e31575b5050600019600383901b1c191660019190911b179055005b015190508380611e19565b601f198216938360005260206000209160005b868110611e855750836001959610611e6c575b505050811b019055005b015160001960f88460031b161c19169055838080611e62565b91926020600181928685015181550194019201611e4f565b826000526020600020601f830160051c81019160208410611edb575b601f0160051c01905b818110611ecf5750611dfe565b60008155600101611ec2565b9091508190611eb9565b015190508680611d7e565b906005840160005260206000209160005b601f1985168110611f4e5750926101809492600192600c9583601f19811610611f35575b505050811b016005820155611d96565b015160001960f88460031b161c19169055868080611f25565b91926020600181928685015181550194019201611f01565b600584016000526020600020601f840160051c810160208510611fa6575b601f830160051c82018110611f9a575050611d5d565b60008155600101611f84565b5080611f84565b015190508480611cd5565b6001830160005260206000209060005b601f198416811061200e5750600193949583601f19811610611ff5575b505050811b016001820155611ced565b015160001960f88460031b161c19169055848080611fe5565b9091602060018192858a015181550193019101611fc8565b600183016000526020600020601f830160051c810160208410612066575b601f830160051c8201811061205a575050611cbb565b60008155600101612044565b5080612044565b015190508480611c7a565b8360005260206000209060005b601f19841681106120c85750600193949583601f198116106120af575b505050811b018255611c8f565b015160001960f88460031b161c191690558480806120a2565b9091602060018192858a015181550193019101612085565b836000526020600020601f830160051c81016020841061211d575b601f830160051c82018110612111575050611c60565b600081556001016120fb565b50806120fb565b346101fc5760203660031901126101fc576004356007548110156101fc5760209060076000527fa66cc928b5edb82af9bd49922954155ab7b0942694bea4ce44661d9a8736c6880154604051908152f35b346101fc576020806003193601126101fc576001600160a01b0390816121996123ca565b166000526009815260406000208054906121b282612d23565b936121c06040519586612543565b828552600091825283822090848087015b8585106121eb57604051828152806101788185018b6123e0565b6001916006916040516121fd816124f1565b858754168152848701548382015260028701546040820152612221600388016125f4565b6060820152856004880154166080820152600587015460a082015281520193019301929185906121d1565b346101fc5760003660031901126101fc57610178612268612d4e565b604051918291826122b4565b919082519283825260005b8481106122a0575050826000602080949584010152601f8019910116010190565b60208183018101518483018201520161227f565b602080820190808352835180925260409283810182858560051b8401019601946000925b8584106122e9575050505050505090565b9091929394959685806123b9600193603f198682030188528b5161236561232c61231c83516101a0808752860190612274565b8684015185820388870152612274565b898301518a850152878060a01b0360608181860151169086015260809081850151169085015260a0808401519085830390860152612274565b9160c0808301519082015260e0808301519082015261010080830151908201526101208083015190820152610140808301519082015261016080830151908201526101808092015191818403910152612274565b9901940194019295949391906122d8565b600435906001600160a01b03821682036101fc57565b908082519081815260208091019281808460051b8301019501936000915b84831061240e5750505050505090565b9091929394958480600192601f19858203018652895190848060a01b039182815116825283810151848301526040808201519083015261245d6060808301519060c08091860152840190612274565b9260809081830151169083015260a08091015191015298019301930191949392906123fe565b6004548110156116a65760046000527f8a35acfbc15ff81a39ae7d344fd709f28e8600b4aa8c65c6b64bfe7fe36bd19b0190600090565b6003548110156116a65760036000527fc2575a0e9e593c00f959f8c92f12db2869c3395a3b0502d05e2516446f71f85b0190600090565b60c081019081106001600160401b0382111761143b57604052565b6101a081019081106001600160401b0382111761143b57604052565b602081019081106001600160401b0382111761143b57604052565b90601f801991011681019081106001600160401b0382111761143b57604052565b81601f820112156101fc578035906001600160401b03821161143b5760405192612598601f8401601f191660200185612543565b828452602083830101116101fc57816000926020809301838601378301015290565b90600182811c921680156125ea575b60208310146125d457565b634e487b7160e01b600052602260045260246000fd5b91607f16916125c9565b9060405191826000825492612608846125ba565b9081845260019485811690816000146126775750600114612634575b505061263292500383612543565b565b9093915060005260209081600020936000915b81831061265f57505061263293508201013880612624565b85548884018501529485019487945091830191612647565b91505061263294506020925060ff191682840152151560051b8201013880612624565b90611690576126a8906125f4565b90565b600c548110156116a657600d90600c600052027fdf6966c971051c3d54ec59162606531493a51404a002842f56009d7e5cf4a8c70190600090565b80548210156116a657600052600d602060002091020190600090565b99969b989591946127386126a89e9c999661272a61276397948e6101a0908181520190612274565b8d810360208f015290612274565b60408c01949094526001600160a01b0391821660608c01521660808a015288820360a08a0152612274565b9760c087015260e0860152610100850152610120840152610140830152610160820152610180818403910152612274565b80548210156116a6576000526006602060002091020190600090565b156127b757565b60405162461bcd60e51b815260206004820152602d60248201527f4f6e6c79207265676973746572656420646f63746f722063616e2063616c6c2060448201526c3a3434b990333ab731ba34b7b760991b6064820152608490fd5b60001981146128215760010190565b634e487b7160e01b600052601160045260246000fd5b8054600160401b81101561143b576128569060019283820181556126e6565b6116905782518051916001600160401b039283811161143b578061287a83546125ba565b93601f94858111612ccf575b50602090858311600114612c6c57600092612c61575b5050600019600383901b1c191690851b1781555b838101602086015180519085821161143b5781906128ce84546125ba565b868111612c0e575b50602090868311600114612bab57600092612ba0575b5050600019600383901b1c191690861b1790555b6040850151600282015560608501516003820180546001600160a01b039283166001600160a01b031991821617909155608087015160048401805491909316911617905560a08501518051600583019185821161143b5761296183546125ba565b858111612b58575b50602090858311600114612ae9579180600c94926101809694600092612ade575b5050600019600383901b1c191690881b1790555b60c0870151600682015560e0870151600782015561010087015160088201556101208701516009820155610140870151600a820155610160870151600b82015501940151805192831161143b576129f585546125ba565b828111612a96575b506020918311600114612a3657928293918392600094612a2b575b50501b916000199060031b1c1916179055565b015192503880612a18565b90601f198316918560005283826000209360005b87828210612a7d57505010612a64575b505050811b019055565b015160001960f88460031b161c19169055388080612a5a565b8486015187559095019460209485019487935001612a4a565b8560005260206000208380860160051c82019260208710612ad5575b0160051c019085905b828110612ac95750506129fd565b60008155018590612abb565b92508192612ab2565b01519050388061298a565b879291601f1983169185600052816000209260005b818110612b405750916101809795939185600c98969410612b27575b505050811b01905561299e565b015160001960f88460031b161c19169055388080612b1a565b8284015185558b969094019360209384019301612afe565b8360005260206000208680850160051c82019260208610612b97575b0160051c019088905b828110612b8b575050612969565b60008155018890612b7d565b92508192612b74565b0151905038806128ec565b90889350601f1983169185600052816000209260005b818110612bf657508411612bdd575b505050811b019055612900565b015160001960f88460031b161c19169055388080612bd0565b8284015185558b969094019360209384019301612bc1565b9091508360005260206000208680850160051c82019260208610612c58575b918a91869594930160051c01915b828110612c495750506128d6565b600081558594508a9101612c3b565b92508192612c2d565b01519050388061289c565b90879350601f1983169185600052816000209260005b818110612cb757508411612c9e575b505050811b0181556128b0565b015160001960f88460031b161c19169055388080612c91565b8284015185558a969094019360209384019301612c82565b9091506000848152602081208680860160051c82019360208710612d1a575b918a9187969594930160051c01925b838110612d0c57505050612886565b8281558695508a9101612cfd565b93508193612cee565b6001600160401b03811161143b5760051b60200190565b80518210156116a65760209160051b010190565b6000338152600a602081815260018060a01b039260016040908581838520015416612f6a5750600c91825494612d8386612d23565b96612d9084519889612543565b868852601f19612d9f88612d23565b0186845b828110612f0357505050825b878110612dc157505050505050505090565b868686868487612dd0826126ab565b506002015488612ddf846126ab565b50600301541689612def856126ab565b506004015416612dfe856126ab565b50612e08866126ab565b506006015491612e17876126ab565b506007015493612e26886126ab565b506008015495612e35896126ab565b509a612e408a6126ab565b506009015498612e4f8b6126ab565b50015499612e5c906126ab565b50600b01549a81519e8f612e6f8161250c565b8351612e7a81612528565b8381528152835192612e8b84612528565b835201528d015260608c015260808b0152600501612ea8906125f4565b60a08a015260c089015260e088015261010087015261012086015261014085015261016084015201612ed9906125f4565b610180820152612ee9828b612d3a565b52612ef4818a612d3a565b50612efe90612812565b612daf565b8651612f0e8161250c565b60608082528084830152878983015287818301528760808301528060a08301528760c08301528760e08301528761010083015287610120830152876101408301528761016083015261018082015282828d010152018790612da3565b939491600c9391845494612f7d86612d23565b97612f8a8351998a612543565b868952848901958285527fdf6966c971051c3d54ec59162606531493a51404a002842f56009d7e5cf4a8c794965b888810612fcc575050505050505050505090565b600d878b928751612fdc8161250c565b612fe58a6125f4565b8152612ff2858b016125f4565b8382015260028a0154898201528560038b01541660608201528560048b015416608082015261302360058b016125f4565b60a082015260068a015460c082015260078a015460e082015260088a015461010082015260098a0154610120820152868a0154610140820152600b8a0154610160820152613072888b016125f4565b610180820152815201960197019694612fb8565b604051602081018181106001600160401b0382111761143b576040526000815290565b600c549060005b8281106130f05760405162461bcd60e51b815260206004820152601160248201527014185d1a595b9d081b9bdd08199bdd5b99607a1b6044820152606490fd5b6130f9816126ab565b50600401546001600160a01b0383811691168114613120575061311b90612812565b6130b0565b9150915061312d826126ab565b50600401546001600160a01b03161461333857600261314b826126ab565b50015490613158816126ab565b50600301546001600160a01b031690613170816126ab565b50600401546001600160a01b031690613188816126ab565b50906006613195826126ab565b5001549060086131a4826126ab565b5001549060096131b3826126ab565b50015490600a6131c2826126ab565b50015490600b6131d1826126ab565b500154906131de816126ab565b509060076131eb826126ab565b500154906131f8816126ab565b50600401546001600160a01b03166000908152600960205260409020541561332a57613223906126ab565b50600401546001600160a01b03166000908152600960205260409020805461324a81612d23565b916132586040519384612543565b818352602083019060005260206000206000915b8383106132c057505050505b60405161328481612528565b600081529c60405161329581612528565b600081529c9b9a996005016132a9906125f4565b989796959493600c016132bb906125f4565b929190565b600660206001926040516132d3816124f1565b848060a01b0386541681528486015483820152600286015460408201526132fc600387016125f4565b6060820152848060a01b036004870154166080820152600586015460a082015281520192019201919061326c565b50613333613086565b613278565b90613342826126ab565b5061334c836126ab565b5092613357816126ab565b509060028092015493613369826126ab565b506003908101546001600160a01b03169490613384846126ab565b50600401546001600160a01b03169461339c856126ab565b50946133a7816126ab565b50906006809201549560086133bb836126ab565b500154956133c8836126ab565b509160098093015496600a6133dc866126ab565b50015496600b6133eb876126ab565b500154966133f8876126ab565b50966007613405826126ab565b50015496613412826126ab565b50600401546001600160a01b0316600090815260208281526040918290205491939092911561352057613444906126ab565b50600460018060a01b03910154166000528152816000209182549461346886612d23565b9661347583519889612543565b8688526000948552838520928489015b8887106134bc5750505050505050505061349f90926125f4565b9d6001016134ac906125f4565b9c9b9a996005016132a9906125f4565b878660019284516134cc816124f1565b848060a01b038954168152848901548382015287890154868201526134f2878a016125f4565b6060820152848060a01b0360048a0154166080820152600589015460a0820152815201950196019593613485565b5050505050505061349f613532613086565b926125f456fea2646970667358221220869f207edbc1c523096f6f5d1f919b7bf02baa779db0aec29aaa55a37d5e08e664736f6c63430008110033036b6384b5eca791c62761152d0c79bb0604c104a5fb6f4eb0703f3154bb3db0405787fa12a823e0f2b7631cc41b3ba8828b3321ca811111fa75cd3aa3bb5ace",
  "devdoc": {
    "kind": "dev",
    "methods": {},
    "version": 1
  },
  "userdoc": {
    "kind": "user",
    "methods": {},
    "version": 1
  },
  "storageLayout": {
    "storage": [
      {
        "astId": 4,
        "contract": "contracts/MedicalContract.sol:MedicalContract",
        "label": "owner",
        "offset": 0,
        "slot": "0",
        "type": "t_address"
      },
      {
        "astId": 6,
        "contract": "contracts/MedicalContract.sol:MedicalContract",
        "label": "contractTitle",
        "offset": 0,
        "slot": "1",
        "type": "t_string_storage"
      },
      {
        "astId": 30,
        "contract": "contracts/MedicalContract.sol:MedicalContract",
        "label": "RandomName",
        "offset": 0,
        "slot": "2",
        "type": "t_array(t_string_storage)dyn_storage"
      },
      {
        "astId": 54,
        "contract": "contracts/MedicalContract.sol:MedicalContract",
        "label": "RandomBloodType",
        "offset": 0,
        "slot": "3",
        "type": "t_array(t_string_storage)dyn_storage"
      },
      {
        "astId": 78,
        "contract": "contracts/MedicalContract.sol:MedicalContract",
        "label": "RandomCPF",
        "offset": 0,
        "slot": "4",
        "type": "t_array(t_string_storage)dyn_storage"
      },
      {
        "astId": 99,
        "contract": "contracts/MedicalContract.sol:MedicalContract",
        "label": "RandomDisease",
        "offset": 0,
        "slot": "5",
        "type": "t_array(t_string_storage)dyn_storage"
      },
      {
        "astId": 124,
        "contract": "contracts/MedicalContract.sol:MedicalContract",
        "label": "RamdomUrgencyLevels",
        "offset": 0,
        "slot": "6",
        "type": "t_array(t_uint256)dyn_storage"
      },
      {
        "astId": 149,
        "contract": "contracts/MedicalContract.sol:MedicalContract",
        "label": "RamdomCurabilityLevels",
        "offset": 0,
        "slot": "7",
        "type": "t_array(t_uint256)dyn_storage"
      },
      {
        "astId": 174,
        "contract": "contracts/MedicalContract.sol:MedicalContract",
        "label": "RamdomAge",
        "offset": 0,
        "slot": "8",
        "type": "t_array(t_uint256)dyn_storage"
      },
      {
        "astId": 225,
        "contract": "contracts/MedicalContract.sol:MedicalContract",
        "label": "records",
        "offset": 0,
        "slot": "9",
        "type": "t_mapping(t_address,t_array(t_struct(Record)214_storage)dyn_storage)"
      },
      {
        "astId": 230,
        "contract": "contracts/MedicalContract.sol:MedicalContract",
        "label": "doctors",
        "offset": 0,
        "slot": "10",
        "type": "t_mapping(t_address,t_struct(Doctor)219_storage)"
      },
      {
        "astId": 236,
        "contract": "contracts/MedicalContract.sol:MedicalContract",
        "label": "patientsByDoctor",
        "offset": 0,
        "slot": "11",
        "type": "t_mapping(t_address,t_array(t_struct(Patient)201_storage)dyn_storage)"
      },
      {
        "astId": 240,
        "contract": "contracts/MedicalContract.sol:MedicalContract",
        "label": "allPatients",
        "offset": 0,
        "slot": "12",
        "type": "t_array(t_struct(Patient)201_storage)dyn_storage"
      }
    ],
    "types": {
      "t_address": {
        "encoding": "inplace",
        "label": "address",
        "numberOfBytes": "20"
      },
      "t_array(t_string_storage)dyn_storage": {
        "base": "t_string_storage",
        "encoding": "dynamic_array",
        "label": "string[]",
        "numberOfBytes": "32"
      },
      "t_array(t_struct(Patient)201_storage)dyn_storage": {
        "base": "t_struct(Patient)201_storage",
        "encoding": "dynamic_array",
        "label": "struct MedicalContract.Patient[]",
        "numberOfBytes": "32"
      },
      "t_array(t_struct(Record)214_storage)dyn_storage": {
        "base": "t_struct(Record)214_storage",
        "encoding": "dynamic_array",
        "label": "struct MedicalContract.Record[]",
        "numberOfBytes": "32"
      },
      "t_array(t_uint256)dyn_storage": {
        "base": "t_uint256",
        "encoding": "dynamic_array",
        "label": "uint256[]",
        "numberOfBytes": "32"
      },
      "t_mapping(t_address,t_array(t_struct(Patient)201_storage)dyn_storage)": {
        "encoding": "mapping",
        "key": "t_address",
        "label": "mapping(address => struct MedicalContract.Patient[])",
        "numberOfBytes": "32",
        "value": "t_array(t_struct(Patient)201_storage)dyn_storage"
      },
      "t_mapping(t_address,t_array(t_struct(Record)214_storage)dyn_storage)": {
        "encoding": "mapping",
        "key": "t_address",
        "label": "mapping(address => struct MedicalContract.Record[])",
        "numberOfBytes": "32",
        "value": "t_array(t_struct(Record)214_storage)dyn_storage"
      },
      "t_mapping(t_address,t_struct(Doctor)219_storage)": {
        "encoding": "mapping",
        "key": "t_address",
        "label": "mapping(address => struct MedicalContract.Doctor)",
        "numberOfBytes": "32",
        "value": "t_struct(Doctor)219_storage"
      },
      "t_string_storage": {
        "encoding": "bytes",
        "label": "string",
        "numberOfBytes": "32"
      },
      "t_struct(Doctor)219_storage": {
        "encoding": "inplace",
        "label": "struct MedicalContract.Doctor",
        "members": [
          {
            "astId": 216,
            "contract": "contracts/MedicalContract.sol:MedicalContract",
            "label": "crm",
            "offset": 0,
            "slot": "0",
            "type": "t_string_storage"
          },
          {
            "astId": 218,
            "contract": "contracts/MedicalContract.sol:MedicalContract",
            "label": "doctorAddress",
            "offset": 0,
            "slot": "1",
            "type": "t_address"
          }
        ],
        "numberOfBytes": "64"
      },
      "t_struct(Patient)201_storage": {
        "encoding": "inplace",
        "label": "struct MedicalContract.Patient",
        "members": [
          {
            "astId": 176,
            "contract": "contracts/MedicalContract.sol:MedicalContract",
            "label": "name",
            "offset": 0,
            "slot": "0",
            "type": "t_string_storage"
          },
          {
            "astId": 178,
            "contract": "contracts/MedicalContract.sol:MedicalContract",
            "label": "cpf",
            "offset": 0,
            "slot": "1",
            "type": "t_string_storage"
          },
          {
            "astId": 180,
            "contract": "contracts/MedicalContract.sol:MedicalContract",
            "label": "birthDate",
            "offset": 0,
            "slot": "2",
            "type": "t_uint256"
          },
          {
            "astId": 182,
            "contract": "contracts/MedicalContract.sol:MedicalContract",
            "label": "doctorAddress",
            "offset": 0,
            "slot": "3",
            "type": "t_address"
          },
          {
            "astId": 184,
            "contract": "contracts/MedicalContract.sol:MedicalContract",
            "label": "patientWalletAddress",
            "offset": 0,
            "slot": "4",
            "type": "t_address"
          },
          {
            "astId": 186,
            "contract": "contracts/MedicalContract.sol:MedicalContract",
            "label": "bloodType",
            "offset": 0,
            "slot": "5",
            "type": "t_string_storage"
          },
          {
            "astId": 188,
            "contract": "contracts/MedicalContract.sol:MedicalContract",
            "label": "recipientAge",
            "offset": 0,
            "slot": "6",
            "type": "t_uint256"
          },
          {
            "astId": 190,
            "contract": "contracts/MedicalContract.sol:MedicalContract",
            "label": "organSize",
            "offset": 0,
            "slot": "7",
            "type": "t_uint256"
          },
          {
            "astId": 192,
            "contract": "contracts/MedicalContract.sol:MedicalContract",
            "label": "urgency",
            "offset": 0,
            "slot": "8",
            "type": "t_uint256"
          },
          {
            "astId": 194,
            "contract": "contracts/MedicalContract.sol:MedicalContract",
            "label": "curability",
            "offset": 0,
            "slot": "9",
            "type": "t_uint256"
          },
          {
            "astId": 196,
            "contract": "contracts/MedicalContract.sol:MedicalContract",
            "label": "qConstant",
            "offset": 0,
            "slot": "10",
            "type": "t_uint256"
          },
          {
            "astId": 198,
            "contract": "contracts/MedicalContract.sol:MedicalContract",
            "label": "queueEntryDate",
            "offset": 0,
            "slot": "11",
            "type": "t_uint256"
          },
          {
            "astId": 200,
            "contract": "contracts/MedicalContract.sol:MedicalContract",
            "label": "disease",
            "offset": 0,
            "slot": "12",
            "type": "t_string_storage"
          }
        ],
        "numberOfBytes": "416"
      },
      "t_struct(Record)214_storage": {
        "encoding": "inplace",
        "label": "struct MedicalContract.Record",
        "members": [
          {
            "astId": 203,
            "contract": "contracts/MedicalContract.sol:MedicalContract",
            "label": "patientAddress",
            "offset": 0,
            "slot": "0",
            "type": "t_address"
          },
          {
            "astId": 205,
            "contract": "contracts/MedicalContract.sol:MedicalContract",
            "label": "oldValue",
            "offset": 0,
            "slot": "1",
            "type": "t_uint256"
          },
          {
            "astId": 207,
            "contract": "contracts/MedicalContract.sol:MedicalContract",
            "label": "newValue",
            "offset": 0,
            "slot": "2",
            "type": "t_uint256"
          },
          {
            "astId": 209,
            "contract": "contracts/MedicalContract.sol:MedicalContract",
            "label": "field",
            "offset": 0,
            "slot": "3",
            "type": "t_string_storage"
          },
          {
            "astId": 211,
            "contract": "contracts/MedicalContract.sol:MedicalContract",
            "label": "doctorAddress",
            "offset": 0,
            "slot": "4",
            "type": "t_address"
          },
          {
            "astId": 213,
            "contract": "contracts/MedicalContract.sol:MedicalContract",
            "label": "date",
            "offset": 0,
            "slot": "5",
            "type": "t_uint256"
          }
        ],
        "numberOfBytes": "192"
      },
      "t_uint256": {
        "encoding": "inplace",
        "label": "uint256",
        "numberOfBytes": "32"
      }
    }
  }
}